{
  "_format": "hh-sol-artifact-1",
  "contractName": "Staker",
  "sourceName": "contracts/Staker.sol",
  "abi": [
    {
      "anonymous": false,
      "inputs": [
        {
          "indexed": false,
          "internalType": "address",
          "name": "",
          "type": "address"
        },
        {
          "indexed": false,
          "internalType": "uint256",
          "name": "",
          "type": "uint256"
        }
      ],
      "name": "Received",
      "type": "event"
    },
    {
      "anonymous": false,
      "inputs": [
        {
          "indexed": true,
          "internalType": "address",
          "name": "sender",
          "type": "address"
        },
        {
          "indexed": false,
          "internalType": "uint256",
          "name": "amount",
          "type": "uint256"
        }
      ],
      "name": "Stake",
      "type": "event"
    },
    {
      "inputs": [
        {
          "internalType": "address",
          "name": "_depositor",
          "type": "address"
        }
      ],
      "name": "CalculateInterest",
      "outputs": [
        {
          "internalType": "uint256",
          "name": "",
          "type": "uint256"
        }
      ],
      "stateMutability": "nonpayable",
      "type": "function"
    },
    {
      "inputs": [
        {
          "internalType": "address",
          "name": "",
          "type": "address"
        }
      ],
      "name": "ContrctdepositTimestamps",
      "outputs": [
        {
          "internalType": "uint256",
          "name": "",
          "type": "uint256"
        }
      ],
      "stateMutability": "view",
      "type": "function"
    },
    {
      "inputs": [
        {
          "internalType": "address",
          "name": "",
          "type": "address"
        }
      ],
      "name": "InterestSet",
      "outputs": [
        {
          "internalType": "bool",
          "name": "",
          "type": "bool"
        }
      ],
      "stateMutability": "view",
      "type": "function"
    },
    {
      "inputs": [
        {
          "internalType": "address",
          "name": "",
          "type": "address"
        }
      ],
      "name": "balances",
      "outputs": [
        {
          "internalType": "uint256",
          "name": "",
          "type": "uint256"
        }
      ],
      "stateMutability": "view",
      "type": "function"
    },
    {
      "inputs": [],
      "name": "checkInterestMapping",
      "outputs": [
        {
          "internalType": "bool",
          "name": "",
          "type": "bool"
        }
      ],
      "stateMutability": "view",
      "type": "function"
    },
    {
      "inputs": [
        {
          "internalType": "address",
          "name": "_depositor",
          "type": "address"
        }
      ],
      "name": "checkInterestValue",
      "outputs": [
        {
          "internalType": "uint256",
          "name": "",
          "type": "uint256"
        }
      ],
      "stateMutability": "view",
      "type": "function"
    },
    {
      "inputs": [],
      "name": "checkdepositTimestamps",
      "outputs": [
        {
          "internalType": "uint256",
          "name": "",
          "type": "uint256"
        }
      ],
      "stateMutability": "view",
      "type": "function"
    },
    {
      "inputs": [],
      "name": "claimFor3Month",
      "outputs": [
        {
          "internalType": "uint256",
          "name": "",
          "type": "uint256"
        }
      ],
      "stateMutability": "view",
      "type": "function"
    },
    {
      "inputs": [
        {
          "internalType": "address",
          "name": "",
          "type": "address"
        }
      ],
      "name": "contractBalances",
      "outputs": [
        {
          "internalType": "uint256",
          "name": "",
          "type": "uint256"
        }
      ],
      "stateMutability": "view",
      "type": "function"
    },
    {
      "inputs": [
        {
          "internalType": "address",
          "name": "",
          "type": "address"
        },
        {
          "internalType": "address",
          "name": "",
          "type": "address"
        }
      ],
      "name": "escrowTx",
      "outputs": [
        {
          "internalType": "address",
          "name": "",
          "type": "address"
        }
      ],
      "stateMutability": "view",
      "type": "function"
    },
    {
      "inputs": [
        {
          "internalType": "address",
          "name": "_depositor",
          "type": "address"
        },
        {
          "internalType": "address",
          "name": "_arbiter",
          "type": "address"
        },
        {
          "internalType": "address",
          "name": "_beneficiary",
          "type": "address"
        },
        {
          "internalType": "bool",
          "name": "_isWithinterest",
          "type": "bool"
        }
      ],
      "name": "ethStake",
      "outputs": [
        {
          "internalType": "bool",
          "name": "",
          "type": "bool"
        }
      ],
      "stateMutability": "payable",
      "type": "function"
    },
    {
      "inputs": [
        {
          "internalType": "address",
          "name": "",
          "type": "address"
        }
      ],
      "name": "interestValue",
      "outputs": [
        {
          "internalType": "uint256",
          "name": "",
          "type": "uint256"
        }
      ],
      "stateMutability": "view",
      "type": "function"
    },
    {
      "inputs": [
        {
          "internalType": "address",
          "name": "_depositor",
          "type": "address"
        },
        {
          "internalType": "address",
          "name": "_arbiter",
          "type": "address"
        }
      ],
      "name": "withDrawal",
      "outputs": [],
      "stateMutability": "nonpayable",
      "type": "function"
    },
    {
      "stateMutability": "payable",
      "type": "receive"
    }
  ],
  "bytecode": "0x6080604052626ebe0060065534801561001757600080fd5b50611eca806100276000396000f3fe6080604052600436106100c65760003560e01c80635a6a18e11161007f5780636438645b116100595780636438645b146102eb5780639338671814610328578063a205b12f14610365578063cc170c94146103a257610106565b80635a6a18e1146102415780635f88746c14610271578063620b7cb3146102ae57610106565b806327e235e31461010b5780632acba4ab1461014857806330853c62146101855780633a420c1d146101c25780633ad0bc06146101eb5780634bbf90371461021657610106565b36610106577f88a5966d370b9919b20f3e2c13ff65706f196a4e32cc2c12bf57088f8852587433346040516100fc92919061114b565b60405180910390a1005b600080fd5b34801561011757600080fd5b50610132600480360381019061012d91906111a5565b6103cd565b60405161013f91906111d2565b60405180910390f35b34801561015457600080fd5b5061016f600480360381019061016a91906111a5565b6103e5565b60405161017c91906111d2565b60405180910390f35b34801561019157600080fd5b506101ac60048036038101906101a791906111a5565b61060f565b6040516101b99190611208565b60405180910390f35b3480156101ce57600080fd5b506101e960048036038101906101e49190611223565b61062f565b005b3480156101f757600080fd5b50610200610ca2565b60405161020d91906111d2565b60405180910390f35b34801561022257600080fd5b5061022b610ce9565b6040516102389190611208565b60405180910390f35b61025b6004803603810190610256919061128f565b610dc1565b6040516102689190611208565b60405180910390f35b34801561027d57600080fd5b50610298600480360381019061029391906111a5565b610ef1565b6040516102a591906111d2565b60405180910390f35b3480156102ba57600080fd5b506102d560048036038101906102d091906111a5565b610f09565b6040516102e291906111d2565b60405180910390f35b3480156102f757600080fd5b50610312600480360381019061030d91906111a5565b610f21565b60405161031f91906111d2565b60405180910390f35b34801561033457600080fd5b5061034f600480360381019061034a9190611223565b610f39565b60405161035c91906112f6565b60405180910390f35b34801561037157600080fd5b5061038c600480360381019061038791906111a5565b610f7b565b60405161039991906111d2565b60405180910390f35b3480156103ae57600080fd5b506103b7610fc4565b6040516103c491906111d2565b60405180910390f35b60046020528060005260406000206000915090505481565b6000806040516103f4906110e4565b604051809103906000f080158015610410573d6000803e3d6000fd5b5090506000600460008573ffffffffffffffffffffffffffffffffffffffff1673ffffffffffffffffffffffffffffffffffffffff16815260200190815260200160002054905060008273ffffffffffffffffffffffffffffffffffffffff1663060614cb670429d069189e00006040518263ffffffff1660e01b815260040161049a9190611356565b602060405180830381865afa1580156104b7573d6000803e3d6000fd5b505050506040513d601f19601f820116820180604052508101906104db919061139d565b90506000600160008773ffffffffffffffffffffffffffffffffffffffff1673ffffffffffffffffffffffffffffffffffffffff168152602001908152602001600020544261052a91906113f9565b90508373ffffffffffffffffffffffffffffffffffffffff1663de251fb68484846040518463ffffffff1660e01b81526004016105699392919061142d565b602060405180830381865afa158015610586573d6000803e3d6000fd5b505050506040513d601f19601f820116820180604052508101906105aa919061139d565b600081905550826000546105be91906113f9565b600760008873ffffffffffffffffffffffffffffffffffffffff1673ffffffffffffffffffffffffffffffffffffffff16815260200190815260200160002081905550600054945050505050919050565b60026020528060005260406000206000915054906101000a900460ff1681565b3381600073ffffffffffffffffffffffffffffffffffffffff16600360008473ffffffffffffffffffffffffffffffffffffffff1673ffffffffffffffffffffffffffffffffffffffff16815260200190815260200160002060008373ffffffffffffffffffffffffffffffffffffffff1673ffffffffffffffffffffffffffffffffffffffff16815260200190815260200160002060009054906101000a900473ffffffffffffffffffffffffffffffffffffffff1673ffffffffffffffffffffffffffffffffffffffff160361073c576040517f08c379a0000000000000000000000000000000000000000000000000000000008152600401610733906114c1565b60405180910390fd5b6000600560003373ffffffffffffffffffffffffffffffffffffffff1673ffffffffffffffffffffffffffffffffffffffff16815260200190815260200160002054116107be576040517f08c379a00000000000000000000000000000000000000000000000000000000081526004016107b59061152d565b60405180910390fd5b6000600560003373ffffffffffffffffffffffffffffffffffffffff1673ffffffffffffffffffffffffffffffffffffffff168152602001908152602001600020549050600260008673ffffffffffffffffffffffffffffffffffffffff1673ffffffffffffffffffffffffffffffffffffffff16815260200190815260200160002060009054906101000a900460ff1615610b4257600654600160008773ffffffffffffffffffffffffffffffffffffffff1673ffffffffffffffffffffffffffffffffffffffff168152602001908152602001600020546108a1919061154d565b4210156108e3576040517f08c379a00000000000000000000000000000000000000000000000000000000081526004016108da906115cd565b60405180910390fd5b60006108ee866103e5565b90506000600560008873ffffffffffffffffffffffffffffffffffffffff1673ffffffffffffffffffffffffffffffffffffffff168152602001908152602001600020819055506000600360003373ffffffffffffffffffffffffffffffffffffffff1673ffffffffffffffffffffffffffffffffffffffff16815260200190815260200160002060008773ffffffffffffffffffffffffffffffffffffffff1673ffffffffffffffffffffffffffffffffffffffff16815260200190815260200160002060009054906101000a900473ffffffffffffffffffffffffffffffffffffffff1673ffffffffffffffffffffffffffffffffffffffff16836040516109f79061161e565b60006040518083038185875af1925050503d8060008114610a34576040519150601f19603f3d011682016040523d82523d6000602084013e610a39565b606091505b5050905080610a7d576040517f08c379a0000000000000000000000000000000000000000000000000000000008152600401610a74906116a5565b60405180910390fd5b60008383610a8b91906113f9565b905060008873ffffffffffffffffffffffffffffffffffffffff1682604051610ab39061161e565b60006040518083038185875af1925050503d8060008114610af0576040519150601f19603f3d011682016040523d82523d6000602084013e610af5565b606091505b5050905080610b39576040517f08c379a0000000000000000000000000000000000000000000000000000000008152600401610b3090611737565b60405180910390fd5b50505050610c9b565b6000600560008773ffffffffffffffffffffffffffffffffffffffff1673ffffffffffffffffffffffffffffffffffffffff168152602001908152602001600020819055506000600360003373ffffffffffffffffffffffffffffffffffffffff1673ffffffffffffffffffffffffffffffffffffffff16815260200190815260200160002060008673ffffffffffffffffffffffffffffffffffffffff1673ffffffffffffffffffffffffffffffffffffffff16815260200190815260200160002060009054906101000a900473ffffffffffffffffffffffffffffffffffffffff1673ffffffffffffffffffffffffffffffffffffffff1682604051610c499061161e565b60006040518083038185875af1925050503d8060008114610c86576040519150601f19603f3d011682016040523d82523d6000602084013e610c8b565b606091505b5050905080610c9957600080fd5b505b5050505050565b6000600160003073ffffffffffffffffffffffffffffffffffffffff1673ffffffffffffffffffffffffffffffffffffffff16815260200190815260200160002054905090565b6000336000600160008373ffffffffffffffffffffffffffffffffffffffff1673ffffffffffffffffffffffffffffffffffffffff1681526020019081526020016000205403610d6e576040517f08c379a0000000000000000000000000000000000000000000000000000000008152600401610d65906117a3565b60405180910390fd5b600260003373ffffffffffffffffffffffffffffffffffffffff1673ffffffffffffffffffffffffffffffffffffffff16815260200190815260200160002060009054906101000a900460ff1691505090565b6000803411610e05576040517f08c379a0000000000000000000000000000000000000000000000000000000008152600401610dfc9061180f565b60405180910390fd5b42600160003373ffffffffffffffffffffffffffffffffffffffff1673ffffffffffffffffffffffffffffffffffffffff1681526020019081526020016000208190555034600460008773ffffffffffffffffffffffffffffffffffffffff1673ffffffffffffffffffffffffffffffffffffffff1681526020019081526020016000208190555034600560003373ffffffffffffffffffffffffffffffffffffffff1673ffffffffffffffffffffffffffffffffffffffff16815260200190815260200160002081905550610edb8484610fca565b610ee58583611089565b60019050949350505050565b60016020528060005260406000206000915090505481565b60056020528060005260406000206000915090505481565b60076020528060005260406000206000915090505481565b60036020528160005260406000206020528060005260406000206000915091509054906101000a900473ffffffffffffffffffffffffffffffffffffffff1681565b6000600760008373ffffffffffffffffffffffffffffffffffffffff1673ffffffffffffffffffffffffffffffffffffffff168152602001908152602001600020549050919050565b60065481565b80600360003373ffffffffffffffffffffffffffffffffffffffff1673ffffffffffffffffffffffffffffffffffffffff16815260200190815260200160002060008473ffffffffffffffffffffffffffffffffffffffff1673ffffffffffffffffffffffffffffffffffffffff16815260200190815260200160002060006101000a81548173ffffffffffffffffffffffffffffffffffffffff021916908373ffffffffffffffffffffffffffffffffffffffff1602179055505050565b80600260008473ffffffffffffffffffffffffffffffffffffffff1673ffffffffffffffffffffffffffffffffffffffff16815260200190815260200160002060006101000a81548160ff0219169083151502179055505050565b6106658061183083390190565b600073ffffffffffffffffffffffffffffffffffffffff82169050919050565b600061111c826110f1565b9050919050565b61112c81611111565b82525050565b6000819050919050565b61114581611132565b82525050565b60006040820190506111606000830185611123565b61116d602083018461113c565b9392505050565b600080fd5b61118281611111565b811461118d57600080fd5b50565b60008135905061119f81611179565b92915050565b6000602082840312156111bb576111ba611174565b5b60006111c984828501611190565b91505092915050565b60006020820190506111e7600083018461113c565b92915050565b60008115159050919050565b611202816111ed565b82525050565b600060208201905061121d60008301846111f9565b92915050565b6000806040838503121561123a57611239611174565b5b600061124885828601611190565b925050602061125985828601611190565b9150509250929050565b61126c816111ed565b811461127757600080fd5b50565b60008135905061128981611263565b92915050565b600080600080608085870312156112a9576112a8611174565b5b60006112b787828801611190565b94505060206112c887828801611190565b93505060406112d987828801611190565b92505060606112ea8782880161127a565b91505092959194509250565b600060208201905061130b6000830184611123565b92915050565b6000819050919050565b6000819050919050565b600061134061133b61133684611311565b61131b565b611132565b9050919050565b61135081611325565b82525050565b600060208201905061136b6000830184611347565b92915050565b61137a81611132565b811461138557600080fd5b50565b60008151905061139781611371565b92915050565b6000602082840312156113b3576113b2611174565b5b60006113c184828501611388565b91505092915050565b7f4e487b7100000000000000000000000000000000000000000000000000000000600052601160045260246000fd5b600061140482611132565b915061140f83611132565b9250828203905081811115611427576114266113ca565b5b92915050565b6000606082019050611442600083018661113c565b61144f602083018561113c565b61145c604083018461113c565b949350505050565b600082825260208201905092915050565b7f596f752772206e6f742074686520617262697465722100000000000000000000600082015250565b60006114ab601683611464565b91506114b682611475565b602082019050919050565b600060208201905081810360008301526114da8161149e565b9050919050565b7f436f6e74726163742042616c616e636520697320302100000000000000000000600082015250565b6000611517601683611464565b9150611522826114e1565b602082019050919050565b600060208201905081810360008301526115468161150a565b9050919050565b600061155882611132565b915061156383611132565b925082820190508082111561157b5761157a6113ca565b5b92915050565b7f436c61696d2074696d65206e6f74207265616368656420796574210000000000600082015250565b60006115b7601b83611464565b91506115c282611581565b602082019050919050565b600060208201905081810360008301526115e6816115aa565b9050919050565b600081905092915050565b50565b60006116086000836115ed565b9150611613826115f8565b600082019050919050565b6000611629826115fb565b9150819050919050565b7f42656e6566696369617279206261736520666565207472616e73616374696f6e60008201527f206661696c656421000000000000000000000000000000000000000000000000602082015250565b600061168f602883611464565b915061169a82611633565b604082019050919050565b600060208201905081810360008301526116be81611682565b9050919050565b7f4465706c6f79657220696e746572657374207472616e73616374696f6e20666160008201527f696c656421000000000000000000000000000000000000000000000000000000602082015250565b6000611721602583611464565b915061172c826116c5565b604082019050919050565b6000602082019050818103600083015261175081611714565b9050919050565b7f596f752772206e6f7420746865206465706c6f79657221000000000000000000600082015250565b600061178d601783611464565b915061179882611757565b602082019050919050565b600060208201905081810360008301526117bc81611780565b9050919050565b7f596f75206e65656420746f207374616b65206574682100000000000000000000600082015250565b60006117f9601683611464565b9150611804826117c3565b602082019050919050565b60006020820190508181036000830152611828816117ec565b905091905056fe608060405234801561001057600080fd5b50610645806100206000396000f3fe608060405234801561001057600080fd5b50600436106100365760003560e01c8063060614cb1461003b578063de251fb61461006b575b600080fd5b61005560048036038101906100509190610346565b61009b565b6040516100629190610382565b60405180910390f35b6100856004803603810190610080919061039d565b6100db565b6040516100929190610382565b60405180910390f35b60006100d46100b1670de0b6b3a76400006100f9565b6100cf6100bd856100f9565b6100ca6301e13380610110565b61012f565b61016f565b9050919050565b60006100f0846100eb85856101c8565b610252565b90509392505050565b600061010982633b9aca0061029e565b9050919050565b6000610128826b033b2e3c9fd0803ce800000061029e565b9050919050565b60008161015d61014b856b033b2e3c9fd0803ce800000061029e565b600285610158919061044e565b61016f565b610167919061044e565b905092915050565b600082828461017e919061047f565b91508110156101c2576040517f08c379a00000000000000000000000000000000000000000000000000000000081526004016101b990610510565b60405180910390fd5b92915050565b6000806002836101d89190610530565b036101ef576b033b2e3c9fd0803ce80000006101f1565b825b9050600282610200919061044e565b91505b6000821461024c576102158384610252565b925060006002836102269190610530565b14610238576102358184610252565b90505b600282610245919061044e565b9150610203565b92915050565b60006b033b2e3c9fd0803ce800000061028c61026e858561029e565b60026b033b2e3c9fd0803ce8000000610287919061044e565b61016f565b610296919061044e565b905092915050565b6000808214806102c65750828283856102b79190610561565b9250826102c4919061044e565b145b610305576040517f08c379a00000000000000000000000000000000000000000000000000000000081526004016102fc906105ef565b60405180910390fd5b92915050565b600080fd5b6000819050919050565b61032381610310565b811461032e57600080fd5b50565b6000813590506103408161031a565b92915050565b60006020828403121561035c5761035b61030b565b5b600061036a84828501610331565b91505092915050565b61037c81610310565b82525050565b60006020820190506103976000830184610373565b92915050565b6000806000606084860312156103b6576103b561030b565b5b60006103c486828701610331565b93505060206103d586828701610331565b92505060406103e686828701610331565b9150509250925092565b7f4e487b7100000000000000000000000000000000000000000000000000000000600052601260045260246000fd5b7f4e487b7100000000000000000000000000000000000000000000000000000000600052601160045260246000fd5b600061045982610310565b915061046483610310565b925082610474576104736103f0565b5b828204905092915050565b600061048a82610310565b915061049583610310565b92508282019050808211156104ad576104ac61041f565b5b92915050565b600082825260208201905092915050565b7f64732d6d6174682d6164642d6f766572666c6f77000000000000000000000000600082015250565b60006104fa6014836104b3565b9150610505826104c4565b602082019050919050565b60006020820190508181036000830152610529816104ed565b9050919050565b600061053b82610310565b915061054683610310565b925082610556576105556103f0565b5b828206905092915050565b600061056c82610310565b915061057783610310565b925082820261058581610310565b9150828204841483151761059c5761059b61041f565b5b5092915050565b7f64732d6d6174682d6d756c2d6f766572666c6f77000000000000000000000000600082015250565b60006105d96014836104b3565b91506105e4826105a3565b602082019050919050565b60006020820190508181036000830152610608816105cc565b905091905056fea26469706673582212208cf07369043e1f9546f616dec2283f9f1dccde60c54ad982555a0a47f427d58e64736f6c63430008110033a2646970667358221220cfa69a63f96d097a115663255140afb214b2c0c9b4c01cec1ce1dbe2b13e692864736f6c63430008110033",
  "linkReferences": {},
  "deployedLinkReferences": {}
}